:020000022000DC
:107000000000042039140300791403007B140300EA
:107010007D1403007F1403008114030000000000AE
:10702000000000000000000000000000B513030095
:107030008514030000000000D51303008914030029
:10704000191603008B1403008B1403008B14030028
:107050008B1403008B1403008B1403008B140300A8
:107060008B1403008B1403008B1403008B14030098
:107070008B1403008B1403008B1403008B14030088
:107080008B140300051103008B1403008B14030001
:107090008B1403008B1403008B1403008B14030068
:1070A0008B1403008B1403008B1403008B14030058
:1070B0008B1403008B14030000000000000000008C
:1070C0008B1403008B1403008B1403008B14030038
:1070D0008B1403008B1403008B14030035B20200E1
:1070E0008B1403008B1403008B14030000000000BA
:1070F000000000008B140300000000008B1403004C
:10710000000000000000000000000000000000007F
:10711000000000000000000000000000000000006F
:10712000000000000000000000000000000000005F
:10713000000000000000000000000000000000004F
:10714000000000000000000000000000000000003F
:10715000000000000000000000000000000000002F
:10716000000000000000000000000000000000001F
:10717000000000000000000000000000000000000F
:1071800000000000000000000000000000000000FF
:1071900000000000000000000000000000000000EF
:1071A00000000000000000000000000000000000DF
:1071B00000000000000000000000000000000000CF
:1071C00000000000000000000000000000000000BF
:1071D00000000000000000000000000000000000AF
:1071E000000000000000000000000000000000009F
:1071F000000000000000000000000000000000008F
:10720000F1EE103A43F08073E1EE103A704700BFA0
:1072100010B5054C237833B9044B13B10448AFF3D0
:1072200000800123237010BD4C630020000000008B
:10723000685C030008B5034B1BB103490348AFF377
:10724000008008BD0000000050630020685C03005F
:10725000154B002B08BF134B9D46A3F5803A002128
:107260008B460F461348144A121A0AF0C1FF0F4BFF
:10727000002B00D098470E4B002B00D098470020E1
:10728000002104000D000D48002802D00C48AFF387
:1072900000800AF043FF200029000AF025F90AF0D7
:1072A00017FF00BF000008000000042000000000DD
:1072B000000000004C630020E88C0020000000006B
:1072C00000000000704700BF214810B54FF4E131C5
:1072D000044603F05FFC01E007F0F4FF204603F0F2
:1072E00071FC03460A20002BF6D0194819490446C0
:1072F00007F098FF204607F075FF1749204607F072
:1073000091FF1649204607F03FFF01E007F0DAFF42
:10731000204603F021FB03460120002BF6D00C4849
:1073200007F060FF0A4807F05DFF0D4803F0BAF868
:107330000C49074807F028FF012007F0C3FF084861
:1073400000F056F8BDE810400749014807F06ABF51
:107350001074002084540300A0540300E054030080
:1073600068630020FC5403000C550300704700BF05
:1073700010B504460AF0F8F8204610BD38B50A4B9F
:1073800004460D46442240F80C3B00210AF030FF31
:107390000023A560237104F15401012008F054FA80
:1073A0002065204638BD00BF1C55030070B504465B
:1073B0000E46006D4FF0FF3108F056FC257955B9A7
:1073C0008EB1A660314604F10C0002F0C5FEB0FAA1
:1073D00080F56D0925710023206D1A46194608F0C5
:1073E00083F8284670BDA668002EF4D0EAE700BFF7
:1073F00070B505464FF0FF31006D08F035FC2B7974
:1074000093B1002305F10C062B71304602F0B8FF52
:10741000044680B10023286D1A46194608F064F826
:10742000B4FA84F0400970BDA96805F10C0002F0BF
:1074300033FA0446EEE7A968304602F02DFA044616
:107440000028E7D1A968304602F086FE04460028ED
:10745000E0D101232B71DDE72DE9F04F85B0DDE9A7
:107460000E4B109F81460D4690461E46002F63D05E
:10747000B8F1000F03D0D8F80030B34249D0D9F8A2
:1074800000002B689E422BD04369B4FBF3F203FB50
:107490001242BAB9BB4215D8B7FBF3F203FB127A1A
:1074A000A7EB0A0300930393436822461F46314625
:1074B0005B46B84788B9039B57469B441C44002F42
:1074C000D6D139E00093A21AC5E90062D0F804A031
:1074D000AB683146D0470028CAD005B0BDE8F08F70
:1074E00069684369A142D0D8CA18A242CDD9A2EB9B
:1074F000040ABA45AB6828BFBA46611A52465846D4
:107500001944BF1A54440AF04BFED344002FAFD1A4
:1075100012E0D8F80430A342B1D8D9F8000082694B
:107520001A44A242ADD9A2EB040ABA45D8F8081011
:1075300028BFBA46E31AE1E7002005B0BDE8F08FA6
:107540002DE9F04F074687B00D4672B30368D1F8B6
:1075500000B090469A69D1E901104AB3013A01F1AD
:1075600001098618A9EB0009441E4FF0010A08E042
:1075700014F8012F9DF817309A4223D1A6423B6898
:1075800014D01A6A934509EB040320D20DF11702B7
:10759000CDE90032CDF808A05B46002241463846CE
:1075A000FFF75AFF0028E3D009DB3B68A8689A6917
:1075B000FF210AF01DFE4FF0FF332B60002007B0C3
:1075C000BDE8F08F6FF0330007B0BDE8F08F034BDC
:1075D000034A044812210AF049FD00BF2455030064
:1075E000CC560300445503002DE9F04F89B00746FF
:1075F000149C129D8B4692461E46002C55D0DBF8FB
:107600000030B3425CD0013340F0A1803868826919
:10761000B5FBF2F302FB1353002B4AD1A24248D828
:10762000B4FBF2F302FB13430593E31A00930493B4
:107630008468139B2A463146A04700287ED1BAF1C0
:10764000000F29D0049B3BB3139B5C1E049B04EBEF
:107650000309139B05F10108A8EB030807E014F8E0
:10766000012F9DF81F309A4266D14C4514D03B68DB
:107670001A6A964208EB040363D2012202920DF1CA
:107680001F02CDE900325146334600223846FFF74B
:10769000E3FE0028E3D051DB139A049B059C1146BE
:1076A000194413911D44002CA9D1002009B0BDE854
:1076B000F08FEB1ACBE90063DBF80030B342A2D1C4
:1076C000DBF80410A9429ED83A6892690A44AA429B
:1076D00099D9A2EB0508A045DBF8080028BFA04611
:1076E000691A0844424613990AF05AFD38681399FA
:1076F000826945444144B5FBF2F302FB1353A4EB0A
:1077000008041391002B7FF478AFDBF800104B1CBA
:107710003FF473AF0092DBE90123D0F80880C04743
:1077200060B9524659463846FFF70AFF00283FF431
:1077300064AF09B0BDE8F08F6FF0330009B0BDE869
:10774000F08F064B064A074812210AF08FFC064BC1
:10775000064A0448B7210AF089FC00BF24550300FB
:10776000CC56030044550300C0550300DC5603000B
:107770002DE9F04F0446D2E9003091B04FF0010BF3
:107780000A9300230B90069104F114080DF12809C7
:107790000593236859F8045B1B6A9D427BD2102332
:1077A0000DF1300A0022CDE901A300922B4641469B
:1077B0002046FFF751FE002839D1059B002B60D1F0
:1077C0000D9B23F00043132B4FD92268D2699342BB
:1077D0004BD84FF0FF3309A810225146099302F00D
:1077E000EDFD0D9B23F00043102B28D0CDF81C900D
:1077F00010260DF12307994607E00136012239468C
:1078000009A802F0DBFDB14517D023681B6A9D4231
:1078100041D20123CDE9017300962B460022414657
:107820002046FFF719FE0028E7D0DDF81C9010F184
:10783000340F1AD011B0BDE8F08FDDF81C90099B11
:107840009BB99AE80F000BF0010610AF07EB860C0E
:10785000069F1026FE603E467D601C365CF8185C74
:10786000BD6086E80F0001230593BBF1020F0FD125
:10787000059B002B14BF00206FF0330011B0BDE852
:10788000F08F069A0C9BD2699B1A002B98DAECE7D2
:107890004FF0020B7DE7034B034A044812210AF024
:1078A000E5FB00BF24550300CC56030044550300FC
:1078B0004368013337D02DE9F0438368013383B047
:1078C000044628D015460E464FF000084FF0010937
:1078D0006A462946CDE90089FFF74AFFE0B905F17C
:1078E00024086B6A591C16D0AF6A7A1C13D0D6F8DC
:1078F00000C09C4513D0D6F804E0BE450FD07345B8
:107900004246294620460AD0BC4508D0FFF730FF42
:107910000028E6D000E0002003B0BDE8F08301209D
:1079200003B0BDE8F0830020704700BF2DE9F041AF
:10793000D1F820C00C46C9682CF00043043B01F18B
:107940000C069E4284B0054617461FD904F1240850
:10795000102612E0424621462846FFF709FF90B95B
:10796000D4F820C0A169E6602CF00043043B143138
:107970001B2BA1614FF0100108D8BCF1000FE9DB0F
:1079800039606FF0010004B0BDE8F0812A466368F9
:1079900052F8140B066AB34207F104001AD20C26FF
:1079A000CDE900100296114628460022FFF754FD4B
:1079B0000028E8D17B79BA79FD79A16904331344B1
:1079C000E2683A602B441A440B44E260A36104B0BD
:1079D000BDE8F081024B034A034812210AF046FB3E
:1079E00024550300CC56030044550300F0B593B072
:1079F00000260D46012707A96A46CDE9006704461F
:107A0000FFF7B6FE064610B121E0831C22D1109B81
:107A100001331CD0119B013319D010AA07A92046AD
:107A2000FFF7A6FEB0B903AA07A92046FFF77EFF1D
:107A30000028EAD19DF91030002B4FF008022946AA
:107A400005A8F0DB0AF09EFB0028ECD101263046A9
:107A500013B0F0BD0646304613B0F0BD2DE9F04737
:107A6000164600240122C6E90942824688461D4680
:107A700006F124094A4631465046FFF779FE07468B
:107A800068B92A4631465046FFF750FF50B1831C73
:107A90001FD1736A013302D0B36A0133EAD1384689
:107AA000BDE8F0872C7904F07004202CE9D1AB6894
:107AB000D8F80020934208D0E868D8F8041088422B
:107AC00003D08B4201D08242DBD101273846BDE88A
:107AD000F0870746E3E700BF2DE9F04F8B469DB0E6
:107AE0000BF1040304930BF10C03CDE9053B016B8F
:107AF00004464FF001080025D4E90D3010E05A0982
:107B0000E66B01385F1CA063676356F822C003F080
:107B10001F0208FA02F212EA0C0F00F027813B461E
:107B20009942ECD1002800F0F2812268E36AD2E9A0
:107B300008621944904228BF1046B1FBF6F306FBD9
:107B400013112063E162E06B6563D20800210AF043
:107B50004FFB6368013300F05781A368013300F0E5
:107B60005381002201230025CDE9082304F11407E5
:107B700001222E46D4F800C0E16ADCF82030206BE8
:107B8000591A0E44B6FBF3F503FB1565854210D276
:107B90006909E26B05F01F0552F8213008FA05F576
:107BA0001D4342F82150DCF82030E16A099A206B2D
:107BB000591A0A44B2FBF3F103FB112383420AD2A0
:107BC0005809E16B03F01F0351F8202008FA03F372
:107BD000134341F8203008AA11A92046FFF7C8FD39
:107BE000002840F00E810C25149A24E02068129B96
:107BF000006A834280F01A820EA9CDE90021029525
:107C0000002239462046FFF727FC002840F0F98083
:107C10009DF839209DF83A309DF83B601499043264
:107C20001A449DF83830324403F070030A44102B94
:107C3000149200F0EB80199B23F00043043B02F107
:107C40000C009842D2D9DDE91A62701CCDE90862B5
:107C500001D0511C8ED1D4F80C904D46B9F1000FD3
:107C600000F0DE81EB69DA0340F156816F69002F85
:107C700000F05281D4F800A0DAF81C60013F083E01
:107C8000B742C0F0CF81B7FBF6F001380AF070F8C8
:107C90000230A7EB8002B2FBF6F6D4F830E0E16ADE
:107CA0002B69079505F12C000546DAF8202070466F
:107CB00004F114098E4601469818A0EB0E0EBEFB87
:107CC000F2F002FB10E28A420AD25709E06B02F09E
:107CD0001F0250F8271008FA02F20A4340F8272042
:107CE000002E00F01781DAF8202006F00107C7F116
:107CF000020A93424FEA8A0080F098810BA9002281
:107D0000CDE90110009249462A462046FFF7A4FB20
:107D1000002876D10AF1FF3CD4F800A013E0BBFBA9
:107D2000F2F302FB13B38B424FF0010014D24FEA7F
:107D3000531EE16B03F01F0351F82E2000FA03F3EA
:107D4000134341F82E30D4F82CE0DAF820200B9BB6
:107D5000216BA2EB0E0B9B446045E0DB1CAB03EBFD
:107D60008C0C023F5CF8443C3E44A5E72068E26A84
:107D7000016A1344B3FBF1F201FB1233049A42F897
:107D8000043BD4E90C139942049207D10FE0A26B93
:107D90000133013A8B42C4E90D3208D05D0903F08A
:107DA0001F0256F8255008FA02F22A42EFD1DDE907
:107DB000043293427FF49FAEDDF818B0006ADBF81E
:107DC000043083420BF11C0204F1140180F02E8177
:107DD000042501920022204602950092FFF73CFB09
:107DE000002840F08B80DBF81C304FF0FF32CBE9ED
:107DF0000922142001331021CBE90730CBF80C10F5
:107E000000201DB0BDE8F08F216B75E6109B002BA4
:107E10003FF411AFD4F800A0DAF81C6003F1FF3B87
:107E2000A6F10809CB4570D3BBFBF9F0013809F086
:107E30009FFF861CABEB8606B6FBF9F60F9BE16A4B
:107E4000DAF82020D4F830E09818401AB0FBF2F1AC
:107E500002FB110272450BD24FEA521CE16B02F099
:107E60001F0251F82C0008FA02F2024341F82C20BC
:107E7000002E3FF4B9AEDAF8202006F00109C9F16E
:107E8000020A93424FEA8A0080F0D0800BA90022B8
:107E9000CDE90110009239462046FFF7DDFA0028AF
:107EA000AFD10AF1FF3CD4F800A013E0BBFBF2F322
:107EB00002FB13B373454FF0010014D24FEA531E77
:107EC000E16B03F01F0351F82E2000FA03F3134374
:107ED00041F82E30E16ADAF820200B9BD4F830E02C
:107EE000A2EB010B9B446045E0DB1CAB03EB8C0C6D
:107EF000A9F102095CF8443C4E44A5E710F1340FA7
:107F00003FF471AF1DB0BDE8F08F064696E76FF005
:107F10001B0076E7079DEB699B037DD52F6A002F39
:107F20007AD0D4F800A0DAF81C60013F083EB742CE
:107F30007AD3B7FBF6F0013809F01AFF0230A7EB4D
:107F40008003B3FBF6F6D4F830E0E16A6B6A07957C
:107F500005F12C000546DAF82020704604F11409DA
:107F60008E4601469818A0EB0E0EBEFBF2F002FB07
:107F700010E28A420AD25709E06B02F01F0250F861
:107F8000271008FA02F20A4340F82720002E42D0B8
:107F9000DAF8202006F00107C7F1020A93424FEAFF
:107FA0008A0043D20BA90022CDE901100092494674
:107FB0002A462046FFF750FA00287FF422AF0AF144
:107FC000FF3CD4F800A013E0BBFBF2F302FB13B3B9
:107FD0008B424FF0010014D24FEA531EE16B03F0C5
:107FE0001F0351F82E2000FA03F3134341F82E30FB
:107FF000D4F82CE0DAF820200B9B216BA2EB0E0BBF
:108000009B446045E0DB1CAB03EB8C0C023F5CF84F
:10801000443C3E44A6E7079D2D68002D7FF422AE28
:10802000216B68E5002638E600268CE7024B034A00
:10803000034812210AF01AF824550300CC56030015
:10804000445503002DE9F04F2DED028B9BB0012527
:1080500004460491A9464FF00008D4E90D31D4F844
:1080600030C00FE05A09E76B0139581CA163606307
:1080700057F8226003F01F0205FA02F2324200F0C4
:108080002A8103469C45EDD1002900F052822368E5
:10809000E66AD3E90802B444914228BF1146BCFB0A
:1080A000F0F300FB13C32163E362E06BC4F8348098
:1080B000D20800210AF09CF863680133CDD0A36890
:1080C0000133CAD000220123CDE90623012200207A
:1080D00004F1140796462268E36A116A266BCB1AEC
:1080E00003EB000CBCFBF1F001FB10C0864210D981
:1080F0004609E16B00F01F0051F8263005FA00F048
:10810000184341F82600D4E90B36116ADDF81CE06B
:10811000CB1A7344B3FBF1F201FB1233B3420AD220
:108120005809E16B03F01F0351F8202005FA03F30F
:10813000134341F8203006AA0FA92046FFF718FB89
:10814000002840F0E9804FF00C08129A0CAE23E0B2
:108150002168109B096A8B4280F0F5810092CDE97D
:108160000168002239462046FFF776F9002840F0E2
:10817000D3809DF831209DF832109DF833C0129BBA
:1081800004320A449DF8301062441A4401F070032E
:10819000102B129200F0C580179B23F00043043B84
:1081A00002F10C019942D3D9DDE9180E411CCDE949
:1081B000060E02D0BEF1FF3F8DD1D4F80C804646AA
:1081C000B8F1000F3FF447AFF369DA0340F12881BB
:1081D0007769002F00F02481D4F800A0DAF81C3071
:1081E000013FA3F108084745C0F0A881B7FBF8F0AC
:1081F000013809F0BDFD0230A7EB8007B7FBF8F7A7
:1082000004F11400E16AD4F830C0DAF820203369B0
:108210000596834606F12C0008EE100A0E466146CC
:108220009818A0EB060EBEFBF2F002FB10E28A42A9
:108230000BD2E06B4FEA521C02F01F0150F82C20C9
:1082400005FA01F10A4340F82C20002F00F0E680E7
:10825000DAF8202007F00108C8F1020A93424FEA39
:108260008A0080F0708109A90022CDE901100092F6
:10827000594618EE102A2046FFF7EEF800284BD199
:108280000AF1FF3CD4F800A012E0BEFBF2F302FBBF
:1082900013E38B424FF0010012D25E09E16B03F051
:1082A0001F0351F8262009FA03F3134341F826303F
:1082B000E66ADAF82020099B216BA2EB060E9E44A9
:1082C0006045E2DB1AAB03EB8C0CA8F102085CF80A
:1082D000443C4744A4E72168E26A096A1344B3FBBB
:1082E000F1F201FB1233049A1360D4E90C038342C8
:1082F00011D0012506E0A26B0133013A8342C4E9A3
:108300000D3208D0590903F01F0257F8211005FA61
:1083100002F20A42EFD100201BB0BDEC028BBDE897
:10832000F08F0E9E002E3FF411AFD4F800A0DAF8C3
:108330001C20013EA2F1080B5E450AD3B6FBFBF000
:10834000013809F015FD0230A6EB8003B3FBFBF307
:108350001846E16AD4F830C00D9BDAF8202008EE08
:10836000107A8E46074661469818A0EB0E0EBEFBAB
:10837000F2F002FB10E28A420AD25609E06B02F0E8
:108380001F0250F8261005FA02F20A4340F8262090
:10839000002F00F0D580DAF8202007F00106C6F1A2
:1083A000020A93424FEA8A0080F0CD8009A9002298
:1083B000CDE90110009218EE101A2046FFF74CF894
:1083C0000028A9D10AF1FF3CD4F800A013E0BBFBC0
:1083D000F2F302FB13B38B424FF0010014D24FEAC9
:1083E000531EE16B03F01F0351F82E2009FA03F32B
:1083F000134341F82E30D4F82CE0DAF82020099B02
:10840000216BA2EB0E0B9B446045E0DB1AAB03EB48
:108410008C0C023E5CF8443C3744A5E7059EF369AA
:108420009B0340F18180376A002F7DD0D4F800A0F3
:10843000DAF81C20013FA2F1080847457CD3B7FBBE
:10844000F8F0013809F094FC0230A7EB8007B7FB85
:10845000F8F704F11400E16AD4F830C0DAF820200B
:10846000736A0596834606F12C0008EE100A0E4644
:1084700061469818A0EB060EBEFBF2F002FB10E27C
:108480008A420BD2E06B4FEA521C02F01F0150F8F7
:108490002C2005FA01F10A4340F82C20002F42D08D
:1084A000DAF8202007F00108C8F1020A93424FEAE7
:1084B0008A0048D209A90022CDE90110009259464C
:1084C00018EE102A2046FEF7C7FF00287FF424AFDD
:1084D0000AF1FF3CD4F800A012E0BEFBF2F302FB6D
:1084E00013E38B424FF0010012D25E09E16B03F0FF
:1084F0001F0351F8262009FA03F3134341F82630ED
:10850000E66ADAF82020099B216BA2EB060E9E4456
:108510006045E2DB1AAB03EB8C0CA8F102085CF8B7
:10852000443C4744A5E7059E3668002E7FF44CAED8
:1085300091E56FF01B00EFE600278AE700275FE672
:1085400018EE107A01E6034B034A0448122109F0A1
:108550008DFD00BF24550300CC5603004455030095
:108560002DE9F04F2DED028BC9B004462C220021DD
:108570001CA809F03DFE4FF00043282227A8002147
:10858000249309F035FE23681B6A01223192002BE7
:1085900000F0C98100274FF00C09319B013300F036
:1085A000B18130AA27A92046FFF7E2F80546002846
:1085B00040F00C81249B002BC0F20E8163680133D4
:1085C00000F04E81A368013300F04A8132AE32469A
:1085D0000CAB25A92046FFF741FA0028C0F2F58030
:1085E00000F03E810E9B259A0F982699934200F049
:1085F00090818B4200F09381DDE91D51239A2690F2
:108600002068259301320023CDE91D150B950593B4
:108610002392C3680A9198474FF0FF380546F0B19E
:1086200015F1340F40F0D2800A9BC4F82080012B52
:1086300040F279810B9B012B40F275811DA92046E8
:10864000FFF700FD0546002840F0C08020681D9916
:1086500001230593C368984705460028E0D123AF5E
:108660000DF1500AA146102239465046CDF85080EF
:1086700001F0A4FE59F8202B1D9B126A934280F052
:1086800015821026CDE900572A4602964946204613
:10869000FEF7AAFF05460028C2D1249B23F0004321
:1086A000043B102B32D904F1140B3DAF22680B9B15
:1086B000126A934280F0F4810122CDE901720096A2
:1086C000002259462046FEF7C7FE054600287DD108
:1086D00001223946504601F071FE22681D9B126A44
:1086E000934280F0E3810122CDE9017200962A468F
:1086F00049462046FEF778FF0546002890D1249B86
:1087000023F000430136043B9E42CFD322681D9BD9
:10871000126A934280F0CA8104220292CDE9006A73
:10872000494600222046FEF75FFF054600287FF4F9
:1087300077AF216AC4F814804A1C12D02068A36A5B
:10874000826900928568626AA847054600287FF41E
:1087500067AF2368A06A9A69FF2109F049FDC4F850
:108760002080206803699847054600287FF458AFA9
:10877000249EDDF874B0CDF8F48026F0004604F1B4
:108780001403043E08EE103A00F0968107460DF1FE
:10879000400908E00137012249463DA801F00EFEDC
:1087A000BE4240F2898123681B6A9B4580F0788134
:1087B0000123CDE9019318EE101A00975B460022C1
:1087C0002046FEF749FE0028E4D00546284649B079
:1087D000BDEC028BBDE8F08F32AE4FF000083246A0
:1087E00027A92046FFF7A2F8F0B1831CEDD10DF1C7
:1087F0009C0CBCE80F001CAE0FC6BCE80F000FC6F7
:108800009CE8070086E8070023681B6A01379F423F
:1088100080F08980309B01337FF4BFAE284649B099
:10882000BDEC028BBDE8F08F9DF9CC309DF8CC20DB
:10883000002BD4DA6368013341D0A36801333ED002
:1088400034A92046FFF7D2F80028BEDB35D03246E7
:1088500027A9204600F03AFC0028C0D00546B5E71D
:10886000DDE93050DDE91D21239B1D91CDE9255027
:108870000133239308911E9209924FF000080126BC
:108880002068C3689847054600284FD015F1340F7B
:108890009CD1089B4FF0FF32012B226243D9099BE8
:1088A000012B40D91DA92046FFF7CCFB0546002827
:1088B0008CD11D994FF00108E2E79DF8CC20DDF83E
:1088C000C8E09DF8CFC0CDF8F89002F07F020EF11D
:1088D0000C0033A9CDE93F198DF8CC20419001233C
:1088E0003DAA27A92046CDF80C81CDF8F4E0CDF8BB
:1088F00008C1CDF810C100F0F9F900283FF46FAFBE
:10890000054663E70025284649B0BDEC028BBDE86B
:10891000F08F88423FF461AF8B427FF46DAE8242AC
:108920007FF46AAE59E76FF033054FE723AFA246F5
:108930004FF0FF331022394607A8079301F03EFDA0
:108940005AF8202B1D9B126A934280F0AF804FF0A3
:108950001009CDE900572A46CDF808905146204627
:10896000FEF742FE0546002890D1249B23F00043E9
:10897000043B102B34D904F1140B10AF2268099B6F
:10898000126A934280F08C80CDE90176CDF8009098
:10899000002259462046FEF75FFD054600287FF479
:1089A00015AF0122394607A801F008FD22681D9B7A
:1089B000126A93427AD22A46CDE90176CDF8009028
:1089C00051462046FEF710FE054600287FF45EAFB4
:1089D000249B23F0004309F10109043B9945CDD3C1
:1089E00022681D9B126A934260D2042207A9CDE936
:1089F00000910292514600222046FEF7F5FD054601
:108A000000287FF443AF216A4FF0FF37B942676116
:108A100011D02068A36A826900928568626AA847BB
:108A2000054600287FF432AF2368A06A9A69FF21C7
:108A300009F0DEFB27622068036998470546002895
:108A40007FF424AF249FDDF874B027F000474FF087
:108A5000FF3204F11403043F08EE103A109245D09F
:108A600081460DF1F40A08E009F10109012251469D
:108A700010A801F0A3FC4F4538D923681B6A9B4519
:108A80000ED2CDE901A618EE101ACDF800905B4683
:108A900000222046FEF7E0FC0028E5D0054695E6DA
:108AA0008E4B8F4A8F48122109F0E0FA8B4B8E4A89
:108AB0008C489C2109F0DAFA3D9A149B9A427FF483
:108AC000B3AD059B002B30D12369002B3FF47EAE64
:108AD0005C681D9A944271D099681E9881426DD04D
:108AE00084426BD08A4269D01B68EEE7109A079BDC
:108AF0009A427FF4CEAEB8F1000F40F08280236935
:108B0000002B3FF463AE5C681D9A944200F0C48071
:108B100099681E98814200F0BF80844200F0BC80BA
:108B20008A4200F0B9801B68EAE7636801334ED0DF
:108B3000A36801333DAE0AAF4BD03246394610AB85
:108B40002046FEF78BFF0028FFF63FAE41D0DDE95F
:108B50001D03109F149731460C370C2612909DF878
:108B600047001897139311AF159617961990002682
:108B70001B9052460123204616971A9600F0B6F82D
:108B800000287FF422AE0A98636898421AD00B9AA4
:108B9000A1688A4216D0884214D0934212D0012292
:108BA000013384F840208FD0A36801338CD0204655
:108BB000FFF7D6FC002887D0054607E65A601E9AC4
:108BC0009A6091E7DDE91D32C4E90132E7E73DAE85
:108BD0000AAF394632462046FEF76AFE0028FFF605
:108BE000F4AD3FF471AF3146DDE91D6000234790DD
:108BF0001A462046469600F079F800283FF464AF04
:108C0000DAE76368013350D0A36801333DAE4DD03D
:108C1000324610AB08A92046FEF720FF0028FFF6D9
:108C2000D4AD43D0DDE91D02109B14930C3318938F
:108C300012900C2311A89DF847701392314615939A
:108C4000002617931690012314AA204619971B9704
:108C50001A9600F04BF800287FF4B7AD08986368C7
:108C600098421DD0099AA1688A4219D0884217D02B
:108C7000934215D00122013384F840203FF43FAFE6
:108C8000A36801333FF43BAF2046FFF769FC00289F
:108C90003FF435AF054699E55A601E9A9A6042E75F
:108CA000DDE91D32C4E90132E4E73DAE08A93246F0
:108CB0002046FEF7FDFD0028FFF687AD3FF41FAF0D
:108CC0003146DDE91D60002347901A46204646964E
:108CD00000F00CF800283FF412AFDBE72455030046
:108CE000CC56030044550300DC5603002DE9F04F39
:108CF0002DED028BCE690D46D1E90141A5B00136BB
:108D000090462A1D69608246EE61AC600892059328
:108D100083B11E46D8F80400D8F80C302A6A1B1A12
:108D2000022E1A4405D1D8F81C70D8F814603A44C1
:108D3000921B2A62DAF80000CDF818800023CDE9F2
:108D40000B140993C36898470446E0B114F1340F3B
:108D50003DD10B9B4FF0FF32012BCAF8202034D9B4
:108D60000C9B012B31D908995046FFF76BF904464B
:108D700068BBDAF80000696801230993C368984763
:108D800004460028E2D105F11C07D0464FF0FF331E
:108D90001022394611A8119301F010FB58F8202B2E
:108DA0006B68126A934280F00D811026CDE900476E
:108DB0002246029641465046FEF716FC834660B1B5
:108DC00010F1340FC5D0044601E06FF033042046A3
:108DD00025B0BDEC028BBDE8F08F2B6A23F0004379
:108DE000043BB3426BD90AF1140308EE103A37463C
:108DF0000DF1640934E0DAF800200C9B126A93420A
:108E000080F0E6800122CDE9019218EE101A009759
:108E100000225046FEF720FB04460028D7D101224D
:108E2000494611A801F0CAFADAF800206B68126A04
:108E3000934280F0C7800122CDE90192009622463C
:108E400041465046FEF7D0FB044600287FF47EAF33
:108E5000013701362B6A23F00043043B9E422ED299
:108E6000059B5B45C7DD069A4FEA0B1302EB0B111E
:108E7000D3580791BB42BED10C4611A8D1E90212CA
:108E800001F09CFADAF800206B68106AE168A268C9
:108E9000834280F09780CDE901210096002241466F
:108EA0005046FEF7A1FB044600287FF44FAF079B16
:108EB0005A68DB680BF1010B17441E44CAE7DAF865
:108EC00000206B68126A93427CD2042211A9CDE97A
:108ED00000610292414600225046FEF785FB04469F
:108EE00000287FF433AFDAF820104FF0FF339942B7
:108EF000CAF8143019D0DAF80000DAF8283082699C
:108F000000928468DAF82420A047044600287FF401
:108F10001DAFDAF80030DAF828009A69FF2109F06D
:108F200067F94FF0FF33CAF82030DAF80000036920
:108F30009847044600287FF409AF2B6AD5F80480CF
:108F400023F000434FF0FF32B3F1040919920AF104
:108F5000140B1DD007460DAE07E001370122314644
:108F600019A801F02BFAB94512D0DAF800301B6AC3
:108F700098452DD20123CDE9016300974346002295
:108F800059465046FEF768FA0028E6D004461EE728
:108F9000199A119B9A427FF4DCAE099B13BBDAF855
:108FA0001030002B3FF413AF5E686A68964215D00C
:108FB0009968A868814211D086420FD08A420DD0AC
:108FC0001B68EEE73D4B3E4A3E489C2109F04EF8B7
:108FD0003A4B3D4A3B48122109F048F85A60AA68CA
:108FE0009A60EDE7DAF80430013347D0DAF8083058
:108FF000013319AE0BAF43D0324639460DAB504664
:10900000FEF72CFD0028C1DB3AD0D5E901030D9F06
:10901000119731460C370C260F909DF83B001597A1
:1090200010930EAF1296149616900026189011AA5F
:109030000123504613971796FFF758FE0028A5D135
:109040000B98DAF80430984231D00C9ADAF808100C
:109050008A422CD088422AD0934228D00122013360
:109060008AF840209BD0DAF80830013397D0504678
:10907000FFF776FA002892D00446A8E619AE0BAFA7
:10908000394632465046FEF713FC0028FFF67EAF05
:1090900085D03146D5E90160002323901A46504619
:1090A0002296FFF723FE00283FF479AFE4E76B68D0
:1090B000CAF80430AA68CAF80820CFE7245503008C
:1090C000DC56030044550300CC5603002DE9F04F55
:1090D0002DED028B154653799279EE790433B1B0B8
:1090E00013440A6A33440C46059322F000411433BA
:1090F000994204F104038346079365D0D4E9010142
:109100002E68E3690696059E0F90921BC4E9011034
:109110000133DBF800000E91C4E907320023089305
:10912000C36809959847A0460646E8B116F1340F82
:109130003CD10E9B4FF0FF32012BCBF820203BD9C6
:109140000F9B012B38D907995846FEF77BFF06463F
:1091500060BBDBF80000D8F8041001230893C36853
:10916000984706460028E1D108F11C04DA464FF082
:10917000FF331022214612A8129301F01FF95AF86A
:10918000202BD8F80430126A934280F04B821025CD
:10919000CDE900643246029551465846FEF724FA5E
:1091A000044620B310F1340FC3D00646304631B028
:1091B000BDEC028BBDE8F08F6FF03306304631B066
:1091C000BDEC028BBDE8F08F19461AAAFEF770FBC2
:1091D000061EEBDB229B002BC0F2E0806B79A979A5
:1091E000EA7904330B4413440593226A86E7D8F8DE
:1091F000203023F00043043BAB4242D90BF114036F
:1092000008EE103A2F460DF194091CB9069BBB429B
:1092100000F0A680DBF800200F9B126A934280F0DA
:10922000FB810122CDE9019218EE101A009700226D
:109230005846FEF711F906460028B7D101224946E3
:1092400012A801F0BBF8DBF80020D8F80430126A4D
:10925000934280F0E7810122CDE9019200953246E8
:1092600051465846FEF7C0F9064600287FF45EAF27
:1092700001370135D8F8203023F00043043BAB42DE
:10928000C3D8DBF80020D8F80430126A934280F08B
:10929000C981042212A9CDE900510292514600224F
:1092A0005846FEF7A1F9064600287FF43FAFDBF8E9
:1092B00020104FF0FF339942CBF8143019D0DBF86F
:1092C0000000DBF82830826900928468DBF82420F3
:1092D000A047064600287FF429AFDBF80030DBF812
:1092E00028009A69FF2108F083FF4FF0FF33CBF885
:1092F0002030DBF8000003699847064600287FF419
:1093000015AFD8F82030D8F8047023F0004A4FF099
:10931000FF32BAF1040A25920BF1140900F00D8115
:1093200005461AAC08E001350122214625A801F0C6
:1093300045F8AA4500F00181DBF800301B6A9F4226
:1093400080F06A810123CDE9014300953B4600226C
:1093500049465846FEF780F80028E4D0064625E73F
:109360002246214612A801F029F8DBF80020D8F89F
:109370000430126A934280F05581CDE90144009592
:10938000224651465846FEF72FF9064600287FF43C
:10939000CDAEDDE9052301249F186BE7226A2199F0
:1093A000D4E9090462F00042134023904A1CDDE92D
:1093B0001B01CDE91B100D90DBF800002494CDE9D2
:1093C0002123002305930C91C36898474FF0FF3881
:1093D00001270646F8B116F1340F7FF4E7AE0C9B77
:1093E000CBF82080012B7FF6E7AE0D9B012B7FF69B
:1093F000E3AE1BA95846FEF725FE064600287FF47B
:10940000D5AEDBF800001B9901230593C36898478C
:1094100006460028DFD121ADD946102229460AA8E8
:10942000CDF8288000F0CAFF59F8202B1B9B126A48
:10943000934280F0F7801024CDE900653246029413
:1094400049465846FEF7D0F806460028C3D1229B6D
:1094500023F00043043B102B33D90BF1140A0BAD5E
:10946000DBF800200D9B126A934280F0D580CDE995
:1094700001570094002251465846FDF7EDFF06467D
:1094800000287FF493AE012229460AA800F096FF37
:10949000DBF800201B9B126A934280F0C3803246A7
:1094A000CDE90157009449465846FEF79DF8064617
:1094B000002890D1229B23F000430134043B9C42BE
:1094C000CED3DBF800201B9B126A934280F0AA8067
:1094D00004220AA9CDE900410292494600225846D9
:1094E000FEF782F8064600287FF475AFDBF82010FF
:1094F000CBF814804B1C17D0DBF80000DBF82830C9
:10950000826900928468DBF82420A0470646002880
:109510007FF461AFDBF80030DBF828009A69FF21A7
:1095200008F066FECBF82080DBF80000036998475E
:10953000002800F0D18006464DE7259A129B9A42FA
:109540007FF4F7ADDDE908354446002B70D1DBF838
:1095500010301A4672B1D2F804C061688C4557D0F9
:109560009068A768B84253D0BC4551D081424FD0D3
:109570001268EFE7DBF80C2022B34FF0FF370BE067
:10958000D2F808E0D4F808C0E64509D0614507D014
:10959000704505D01268AAB1516860688142EFD168
:1095A000D1682868814230D0F4D9687995F806E00E
:1095B00095F807C0043070446044091AD1601268FD
:1095C000002AE9D163B9F1E59F68A06887420BD012
:1095D000824209D0B94207D01B68002B3FF4E6ADA8
:1095E0005A6861688A42EFD1D9682A689142F3D9F2
:1095F0006A7995F806C0EF799869043262443A4472
:10960000891A821AD9609A61E6E7C2E90177C1E74F
:109610005160A1689160ABE79B4B9C4A9C4812212A
:1096200008F024FD984B9B4A99489C2108F01EFDA8
:10963000DBF80430013379D0DBF80830013325AF93
:109640000DF1380875D012AB3A4641465846FEF740
:1096500005FA0028FFF682AE6BD0D4E901231298F8
:109660001A900C301E9014920C2013AA9DF84FC033
:10967000159339461B9000271D901C9201231AAAAE
:109680005846CDF87CC0CDF884C02097FFF72EFB5C
:1096900000287FF463AE0E98DBF80430984260D067
:1096A0000F9ADBF808108A425BD0884259D0934267
:1096B00057D0012201338BF840203FF448AFDBF84C
:1096C000083001333FF443AF5846FEF749FF002806
:1096D0003FF43DAF064669E5229DDDF86CA0CDF86C
:1096E0002C8025F000450BF11403043D1E463FD0AD
:1096F00004460DF1940907E00134012249460BA804
:1097000000F05CFEA54233D0DBF800301B6A9A45BE
:1097100082D2CDE901970094534600223146584643
:10972000FDF79AFE0028E7D006463FE525AF0DF18C
:10973000380841463A465846FEF7BAF80028FFF680
:109740000DAE3FF404AF3946D4E9017000232F90E9
:109750001A4658462E97FFF7C9FA00283FF4F7AE8D
:10976000B8E76368CBF80430A268CBF80820A0E71C
:10977000DDE90A329A427FF432AE059B93B9DBF8F9
:109780001060002E3FF412AD70681B9B984276D09B
:10979000B2681C998A4272D0884270D093426ED0CF
:1097A0003668EEE7DBF8043001334AD0DBF80830E6
:1097B000013325AF0CAC46D03A4621460EAB584695
:1097C000FEF74CF9061EFFF6F1AC3CD00E9B12934F
:1097D000DDE91B420C339DF83F0016930C231094D7
:1097E0001192139315931790199039460FAD0024D9
:1097F000012312AA584614951894FFF777FA0646E3
:1098000000287FF4D3AC0C98DBF80430984231D0B8
:109810000D9ADBF808108A422CD088422AD0934255
:1098200028D0012201338BF84020A8D0DBF8083083
:109830000133A4D05846FEF793FE0646002E9ED074
:10984000B4E425AF0CAC21463A465846FEF730F852
:10985000061EFFF6ABAC92D0DDE91B4000232F9033
:1098600039461A4658462E94FFF740FA0646002E0F
:1098700085D09BE4DDE91B32CBE90132D1E773608F
:109880001C9BB3608CE700BF24550300CC5603003B
:1098900044550300DC5603002DE9F04F2DED028BFB
:1098A0008B6A0160C5B00446002B00F09780C3614D
:1098B000C86A002800F09E80A0628A69FF2108F033
:1098C00097FC4FF0FF33226823626361536AD90625
:1098D00040F02783002B00F01D83106B002800F060
:1098E0009280E063D2E90551B1FBF5F305FB131358
:1098F000002B40F0FA82D769B7FBF1F501FB157533
:10990000002D40F000834FF0FF36A7F10803B6FBAF
:10991000F3F33344B3FA83F3C3F12003B7EB830FBC
:10992000C0F0EA82526A25612946C4E90265D2087C
:1099300084F84050666008F05BFC2368E562D3E978
:109940000823934228BF1346C4E90C35A26322A919
:109950002046FEF7C1F8054678B123689A6A002AC6
:1099600063D0DA6A002A5BD01B6B002B54D02846E8
:1099700045B0BDEC028BBDE8F08F2DA92046FEF767
:10998000ABF805460028E8D1DDE92E21349B0E9284
:10999000CDE92E120133049034930D914FF001095B
:1099A0002068C36898470546002843D015F1340F56
:1099B000D3D10D9B2662012B0DD90E9B012B0AD909
:1099C0002EA92046FEF73EFB05460028C5D10123FF
:1099D0002E990493E4E76FF03305BEE7486905F07C
:1099E000BDFCE061002800F0DF802168C86A002823
:1099F0007FF462AF886905F0B1FCA062002800F036
:109A0000D380216859E7D80805F0A8FCE063002856
:109A100000F0CA80226865E7E06B05F0B3FCA6E7BA
:109A2000A06A05F0AFFC23689EE7E06905F0AAFC98
:109A3000236896E734AFA2461022394609A8099652
:109A400000F0BCFC5AF8202B2E9B126A934280F047
:109A50007D824FF01008CDE900572A46CDF80880E6
:109A600051462046FDF7C0FD054600289ED1359B96
:109A700023F00043043B102B474633D904F1140B69
:109A80000DF1280822680E9B126A934280F06482CE
:109A9000CDE901890097002259462046FDF7DCFCFC
:109AA000054600287FF459AF0122414609A800F07D
:109AB00085FC22682E9B126A934280F047822A46D8
:109AC000CDE90189009751462046FDF78DFD0546F9
:109AD00000287FF46BAF359B23F000430137043B34
:109AE0009F42CFD322682E9B126A934280F02E822F
:109AF000042209A9CDE900710292514600222046B4
:109B0000FDF772FD054600287FF450AF216A6661BB
:109B10004B1C11D02068A36A826900928568626A32
:109B2000A847054600287FF441AF2368A06A9A69D8
:109B3000FF2108F05DFB266220680369984705460F
:109B400000287FF433AF359BDDF8B8B00A9623F0D8
:109B5000004304F11402043B08EE102A3CD01D46D9
:109B6000234608EE90AA38AF92460446984607E08E
:109B70000134012239460AA800F020FCA54228D071
:109B8000D8F800301B6A9B4580F0E681CDE9017969
:109B900000945B46002251464046FDF75DFC0028DC
:109BA000E6D005464446D8E623689A6A002A00F0C3
:109BB000C881DA6A002A00F0BF811B6B002B00F01D
:109BC000B7816FF00B05284645B0BDEC028BBDE8B0
:109BD000F08F18EE90AA4446DDE909329A427FF4EC
:109BE000E8AE049B002B40F0168225698DB16868B1
:109BF0002E9B984200F0B681AA682F998A4200F005
:109C0000B181884200F0AE81934200F0AB812D68B3
:109C1000ECE7A74A23688DF86A50082641F22E47E0
:109C2000ADF868708DF86B6092E80300D3E9072601
:109C30001D9220AA82E803002F9A06954FF001108A
:109C40002E9D1E9634211026A2601C922C92022278
:109C50001F9065601B952B9519962A914FF001096D
:109C600004921846DDE92331299A0C93CDE9231398
:109C70000132002307932992C3680B919847054648
:109C8000D8B115F1340F7FF468AE0B9B4FF0FF3263
:109C9000012B226232D90C9B012B2FD923A92046FC
:109CA000FEF7D0F9054628BB2068239901230793C6
:109CB000C368984705460028E3D129AF4FF0FF332A
:109CC0001022394611A8119300F078FB2268239BDB
:109CD000126A934280F03A811026CDE900572A4655
:109CE000029651462046FDF77FFC18B310F1340F61
:109CF000CBD0054615F1340F7FF42FAE049B012B1A
:109D000014D1069B002B3FF466AE22A90026012742
:109D100038AA2046CDE93867FDF72AFD0546002818
:109D20007FF41BAE23681A6AA26317E6012320683A
:109D3000049397E72A9B23F00043043BB34259D98D
:109D400018EE108A37460DF1E00B05902FE02268DF
:109D50000C9B126A934280F0FF80CDE901B9009715
:109D6000002241462046FDF777FB05460028C1D179
:109D70000122594611A800F021FB2268239B126A98
:109D8000934280F0E3802A46CDE901B9009651461E
:109D90002046FDF729FC054600287FF472AF013705
:109DA00001362A9B23F00043043B9E4222D2059BAE
:109DB000002BCCD1102FCAD11AAD2022294611A8D0
:109DC00000F0FCFA2268239B126A934280F0BE8066
:109DD0002021CDE900650291059A51462046FDF704
:109DE00003FC054600287FF44CAF012320363027C2
:109DF0000593D6E72268239B126A934280F0A680DF
:109E0000042211A9CDE900610292514600222046A8
:109E1000FDF7EAFB054600287FF433AF216A4FF0D7
:109E2000FF339942636113D02068A36A826900926C
:109E30008568626AA847054600287FF422AF236838
:109E4000A06A9A69FF2108F0D3F94FF0FF3323622B
:109E5000206803699847054600287FF412AF2A9BC3
:109E6000DDF88C8023F0004B4FF0FF32BBF1040B88
:109E700038921FD018EE105A07460DAE07E0013792
:109E80000122314638A800F099FABB4512D0236868
:109E90001B6A984560D2CDE90169009743460022CC
:109EA00029462046FDF7D8FA0028E8D0054621E7E4
:109EB000C0560300389A119B9A427FF4E6AE079B86
:109EC000002B57D123696BB15D68239A95424DD021
:109ED00099682498814249D0854247D08A4245D02A
:109EE0001B68F0E70123069308E7914B914A9248DB
:109EF00040F61F0108F0BAF8904B8E4A8E4840F6A3
:109F0000230108F0B3F88E4B8A4A8B484FF4026164
:109F100008F0ACF88B4B874A874840F6140108F0EC
:109F2000A5F8894B834A844840F6130108F09EF84F
:109F3000E06B05F027FA44E6A06A05F023FA2368EF
:109F40003BE6E06905F01EFA236832E67F4B804A63
:109F500079489C2108F08AF87C4B7E4A7648122189
:109F600008F084F86B602F9BAB6050E65A60249A2F
:109F70009A60B5E76368013300F09F80A3680133FE
:109F800038AE0BAF00F09B80324639460DAB204611
:109F9000FDF764FD051EFFF6ADAE00F09080DDE933
:109FA00023030D9D11950C3515950F900C259DF8EB
:109FB0003B00109331461295149516900025189089
:109FC00011AA0EAE0123204617951396FEF78EFEBA
:109FD000054600287FF48EAE0B986368984267D0E0
:109FE0000C9AA1688A4263D0884261D093425FD0C4
:109FF0004FF00102013384F840203FF463AFA368BF
:10A0000001333FF45FAF2046FEF7AAFA0546002D64
:10A010003FF458AF6EE6636801336ED0A368013336
:10A0200038AE0DAF6BD03246394611AB2046FDF746
:10A0300015FD051EFFF691AC61D0DDE92E02119BE6
:10A0400019930C331D9313900C2312A89DF84B50B9
:10A05000149231461A931C931B900026012319AACF
:10A0600020461E9520951F96FEF740FE05460028C7
:10A070007FF473AC0D986368984239D00E9AA1684A
:10A080008A4235D0884233D0934231D00122013305
:10A0900084F840203FF4A9ADA36801333FF4A5AD97
:10A0A0002046FEF75DFA0546002D3FF49EAD54E4D0
:10A0B000DDE92332C4E901329AE738AE0BAF394605
:10A0C00032462046FDF7F4FB051EFFF613AE3FF4C3
:10A0D000F9AEDDE923500023429031461A4620466E
:10A0E0004195FEF703FE0546002D3FF4EBAE01E679
:10A0F000DDE92E32C4E90132C8E738AE0DAF39468A
:10A1000032462046FDF7D4FB051EFFF626AC3FF491
:10A110006CADDDE92E500023429031461A462046B0
:10A120004195FEF7E3FD0546002D3FF45EAD14E4D6
:10A1300014560300EC560300445503007456030004
:10A1400044560300FC550300DC550300245503006E
:10A15000DC560300CC560300F0B58B6A01609BB05F
:10A160000446002B7CD0C361C86A002800F08380BD
:10A17000A0628A69FF2108F03BF84FF0FF332168A5
:10A1800023626361486AC30640F0C380002800F080
:10A19000D5800B6B002B75D0E363D1E90503B3FBCE
:10A1A000F0F200FB1232002A40F0C180C869B0FB17
:10A1B000F3F203FB1202002A40F0B2804FF0FF35A9
:10A1C000A0F10803B5FBF3F32B44B3FA83F3C3F117
:10A1D0002003B0EB830FC0F085800B6AA363C4E952
:10A1E0000155C4E90322C4E90B2284F840206263CC
:10A1F0000026012704AA0FA92046CDE90467FDF730
:10A20000B7FA054660B123689A6A002A46D0DA6A2E
:10A21000002A3ED01B6B002B45D028461BB0F0BD5A
:10A220002146109B51F8142B126A934280F08D80C6
:10A230002020029007AE1020CDE900062A462046D5
:10A24000FDF70AF905460028DDD1DDE90810424B8B
:10A250000D9A9A42C4E9011029D06FF03305D2E774
:10A26000486905F07BF8E061002831D02168C86AB0
:10A2700000287FF47DAF886905F070F8A06238B3DC
:10A28000216876E7C00805F069F8E06300B321684B
:10A2900083E7A06A05F076F82368BBE7E06905F07C
:10A2A00071F82368B3E7E06B05F06CF8B5E70E9A38
:10A2B000A3F18773A3F580639A42CED10C9B1A0C4D
:10A2C000012A02D19BB2012BA7D96FF015059AE79D
:10A2D00023689A6AC2B1DA6A8AB11B6B4BB16FF01C
:10A2E0000B059AE71D4B1E4A1E4840F6230107F056
:10A2F000BDFEE06B05F046F86FF00B058DE7A06A38
:10A3000005F040F82368E8E7E06905F03BF82368CA
:10A31000E1E7154B124A134840F6130107F0A6FE79
:10A32000124B0F4A0F484FF4026107F09FFE104B8B
:10A330000B4A0C4840F61F0107F098FE0D4B084AE7
:10A34000084840F6140107F091FE0B4B0B4A0548F4
:10A35000122107F08BFE00BF6C6974747456030001
:10A36000EC56030044550300DC550300445603003B
:10A3700014560300FC55030024550300CC5603007B
:10A3800003689A6A10B504462AB1DA6A52B11B6BA7
:10A390007BB1002010BDC06904F0F4FF2368DA6AC5
:10A3A000002AF4D1A06A04F0EDFF23681B6B002B98
:10A3B000EFD1E06B04F0E6FF002010BDE2B170B415
:10A3C000561E0E4D02680E444C1E14F8013F83EADF
:10A3D000020101F00F01A64255F8211081EA121284
:10A3E00082EA131303F00F0355F8233083EA1212A5
:10A3F000EBD170BC02607047704700BFF856030095
:10A4000010B5034B03600446FCF7B0FF204610BDB7
:10A410004057030010B5054B03600446FCF7A6FF48
:10A42000204607F0A1F8204610BD00BF40570300AA
:10A4300008B500F0ABF9002008BD00BF70B501F50C
:10A44000ED51CC0182B004F18006FF2501222046A7
:10A450000DF1070114448DF8075000F09DF9A64254
:10A46000F4D1002002B070BD08B501F5ED5102EB4A
:10A47000C110029A194600F08FF9B0FA80F0400935
:10A48000404208BD08B501F5ED5102EBC111184677
:10A49000029A00F099F90028CCBF00200120404228
:10A4A00008BD00BF38B500210546FCF77FFF98B90D
:10A4B0004FF46D24204604F5805400F091F958B112
:10A4C000B4F5742FF6D12846FCF792FF28460021F8
:10A4D000BDE83840FCF76ABF38BD00BF10B5074C77
:10A4E00007492046FCF74AFF064B23602046064AF0
:10A4F0000649BDE8104007F0B3BD00BF6863002007
:10A5000004600020405703000060002001A4020006
:10A5100010B504460069431C18D0E36823B1616993
:10A520004FF48052984770B90B2007F091FB2368D5
:10A5300020699847D4E9040163684FF48052984732
:10A540000B2007F09BFB4FF0FF33236110BD00BFD2
:10A550002DE9F04F83B0019343B3DFF870900546C7
:10A560000E4690461F46C6F30B0ACAF580542B6967
:10A57000BC4206EA090B28BF3C465B4528464146DB
:10A58000224617D0FFF7C4FFAB686869C5F810B062
:10A5900059464FF4805298476869414622465044D4
:10A5A00007F0FEFD3F1B2644A044DCD1019803B018
:10A5B000BDE8F08F6869504407F0F2FD3F1BA044EE
:10A5C0002644D0D1019803B0BDE8F08F00F0FFFF22
:10A5D0002DE9F84307691D467B1C0646884614464C
:10A5E00005D097420BD807F580539A4230D3B36811
:10A5F000214640462A4698472846BDE8F883531925
:10A600009F42F4D207F580539A42F0D2A7EB040997
:10A610004A462146B3684046E71B98477A1908EB3B
:10A6200009004FF4805C0021624528BF62467369CF
:10A63000174619444F4407F0B3FDBD42DCD9B36857
:10A64000E11908EB0700EA1B98472846BDE8F883A4
:10A65000A7EB040C0CF5805CE11B2A4640464FF04A
:10A660000009E1E729DF704728DF704712DF7047F4
:10A6700008B507F087FDB0FA80F0400908BD00BFBB
:10A6800010B5144607F08CFD204610BDF0B583B020
:10A69000074600230DF1070016460C46D5088DF835
:10A6A0000730FFF7E3FF01E004F00CFE2A462146E5
:10A6B0003846FFF7D7FF112803464FF00100F3D0CB
:10A6C000D3B99DF80730D3B907EB560704EB56040E
:10A6D00001E004F0F7FD2A4621463846FFF7C2FFA5
:10A6E000112803464FF00100F3D02BB99DF8073035
:10A6F00063B9304603B0F0BD002003B0F0BD084B95
:10A700004FF0FF31186805F0AFFADDE7044B4FF06A
:10A71000FF31186805F0A8FA304603B0F0BD00BF5D
:10A720000C74002030B5184D296883B00446D9B1A7
:10A73000240B01E004F0C6FD2046FFF795FF112829
:10A7400003464FF00100F5D013B1002003B030BD37
:10A750000DF107008DF80730FFF788FF9DF80730EF
:10A760004BB9012003B030BD0A2004F08BFE2860F5
:10A770000028DDD1E9E728684FF0FF3105F074FAD1
:10A78000012003B030BD00BF0C7400200148FFF76A
:10A79000BFBE00BF3C60002010B4094CA0420AD3E9
:10A7A000B0F5742F07D213465DF8044B0A460146F4
:10A7B0000448FFF7CDBE4FF0FF305DF8044B704703
:10A7C000007002003C60002010B40C4613460146A5
:10A7D000224602485DF8044BFFF7FABE3C600020B9
:10A7E00030B5184D296883B00446D9B1240B01E077
:10A7F00004F068FD2046FFF737FF112803464FF0AD
:10A800000100F5D013B1002003B030BD0DF10700F9
:10A810008DF80730FFF72AFF9DF807304BB901206C
:10A8200003B030BD0A2004F02DFE28600028DDD1E1
:10A83000E9E728684FF0FF3105F016FA012003B070
:10A8400030BD00BF0C7400200146014800F056BA2C
:10A850003074002038B500F097F940B10024054667
:10A860002046013400F0C8FDE0B28542F9D838BD79
:10A8700070B592B01D460C46164601A84222002132
:10A8800007F0B6FC412D5CD9631C0222DBB28DF8C7
:10A8900006408DF80E408DF8264040F6083540F20F
:10A8A00002248DF81E308DF827308DF83130ADF848
:10A8B00004508DF807208DF812208DF833208DF884
:10A8C0003B20ADF80840204A069240F201250523BE
:10A8D0002424ADF810508DF815308DF8164004235F
:10A8E0001A4C8DF81F30012540F224628DF81C505F
:10A8F0008DF830300894ADF82420154D0A950823C2
:10A900004FF411640A228DF82C30ADF82E4040230C
:10A910008DF834200F4C8DF83C3001A9304640F2C0
:10A92000075540F209464222ADF80C60ADF83850A8
:10A930008DF84330CDF83F4007F032FC422012B092
:10A9400070BD002012B070BD200105242402020554
:10A950000705800307058002007EFF280AD010B596
:10A9600000F0F8FC044608B1204610BD06F0DCFFFC
:10A97000204610BD00207047007EFF280ED000B595
:10A9800083B00DF1070100F02DFD20B19DF8070007
:10A9900003B05DF804FB4FF0FF30F9E74FF0FF30F4
:10A9A000704700BF007EFF280FD000B583B00122A2
:10A9B0000DF1070100F0DAFC20B19DF8070003B0AB
:10A9C0005DF804FB4FF0FF30F9E74FF0FF307047C0
:10A9D000007EFF2801D000F00FBD7047007EFF28E9
:10A9E00001D000F069BD0020704700BFF8B50646F1
:10A9F000007EFF281CD017465AB10D46144600F0C1
:10AA000083FC2946224680B1307E00F039FD241AAD
:10AA100001D13846F8BD054406F086FF307E00F0CF
:10AA200073FC294622460028EED13F1B3846F1E749
:10AA30000020F8BD70B50368184A5B6882B0934285
:10AA40008DF8071021D10546007EFF2823D000F0A5
:10AA50005BFC0DF1070601243146224688B1287EB1
:10AA600000F00EFD241A02D1012002B070BD064490
:10AA700006F05AFF287E00F047FC314622460028A7
:10AA8000EDD1C4F1010002B070BD01220DF107014A
:10AA9000984702B070BD002002B070BDEDA9020061
:10AAA00070B592B01D460C46164601A84222002100
:10AAB00007F09EFB412D5CD9631C0222DBB28DF8AE
:10AAC00006408DF80E408DF8264040F6083540F2DD
:10AAD00002248DF81E308DF827308DF83130ADF816
:10AAE00004508DF807208DF812208DF833208DF852
:10AAF0003B20ADF80840204A069240F2012505238C
:10AB00002424ADF810508DF815308DF8164004232C
:10AB10001A4C8DF81F30012540F224628DF81C502C
:10AB20008DF830300894ADF82420154D0A9508238F
:10AB30004FF411640A228DF82C30ADF82E404023DA
:10AB40008DF834200F4C8DF83C3001A9304640F28E
:10AB5000075540F209464222ADF80C60ADF8385076
:10AB60008DF84330CDF83F4007F01AFB422012B079
:10AB700070BD002012B070BD200105242402020522
:10AB80000705800307058002014B1878704700BF56
:10AB90002C740020037EFF2B02D1074B1A7802B1E0
:10ABA0007047064902764161012200F11001044814
:10ABB0001A7000F043B800BF2C74002048570300FF
:10ABC00030740020007EFF280ED000B583B000F066
:10ABD0009BFB10B103B05DF804FB019006F0A4FEEE
:10ABE000019803B05DF804FB0020704701B900B183
:10ABF000704700B583B0694600F09CFB009BB3F53D
:10AC0000966F02D003B05DF804FB00F029FBF9E772
:10AC100030B4084B084AFF2002F108054FF47A745B
:10AC20000021303218761D609C601A6130BC59607A
:10AC3000596170471074002058570300F8B5054655
:10AC4000B0F818016C69B5F81A310A680E46044468
:10AC50001B1A176895F81C119BB222463046B8475C
:10AC600050B3221894423CD2766806E0052B25D0DA
:10AC700023780BB31C44A24233D96378042BF5D15B
:10AC8000E378002BF4D195F81C11013185F81C11E3
:10AC9000002EEDD095F840110729E9D801F14807B9
:10ACA00045F82760217295F84011013185F840116F
:10ACB0001E462378002BDDD10020F8BD94F9023028
:10ACC000002B08DB95F81E31591C85F81E11A17860
:10ACD0000B43A370CCE795F81D31591C85F81D1165
:10ACE000F5E7B5F818216B69104480B2A5F8180192
:10ACF000588095F81C211A710120F8BD2DE9F04308
:10AD0000284DDFF8B090AC4604468846BCE80F00FA
:10AD100089B003AF0FC703AE0FCE05F1140E254661
:10AD20000FC59EE80700DCF800303B806B463668B4
:10AD30002E8003C36B4603CB1B4EA06104F11803A6
:10AD40004FF4807C0125E16184F82020636140F2AA
:10AD5000EF2200231548C4F8189140F20947042156
:10AD6000A4F81CC1C4F8280184F84011A280C4F8DA
:10AD70002C31C4F83031C4F83431C4F83831C4F857
:10AD80003C314FF4E131C4E94876094884F81E515A
:10AD9000A571FFF7FFFE404600F050FA284609B0C3
:10ADA000BDE8F083B85703008C57030094570300A5
:10ADB00010740020090000012DE9F04F04468BB00B
:10ADC000002900F09180032900F09C8090F8403128
:10ADD0008B4240F2CB80483100F5A27550F82160DB
:10ADE0003278002A00F0E78000231946374603E056
:10ADF0000131725C7718CAB102F14000C0B201287B
:10AE0000F6D9F42AF4D8100618D40120A2F5584730
:10AE1000B7F5006FECD30144202B00F0C98025F872
:10AE20001320725C01337718002AE5D1DBB20133BD
:10AE30005B0043F4407304F5A17C5DE002F0E000A8
:10AE4000C02800F0A18002F0F000E02800F091801E
:10AE500002F0F800F028CBD102F007024FF0040E08
:10AE6000787800F0C00CBCF1800FC1D197F802C017
:10AE70000CF0C00800F03F00B8F1800F40EA8212E9
:10AE8000B6D10CF03F0CBEF1030F4CEA821275D024
:10AE9000F87800F0C007802FAAD100F03F0040EA08
:10AEA0008212A2F58030B0F5801F38BF4FF0040E3B
:10AEB0009ED2A2F55840B0F5006F99D3B2F5803F0D
:10AEC0007144A9D31E2BB1DCA2F580325800970A39
:10AED0002844C2F30902A7F52057A2F5105225F81D
:10AEE00013704280023384E7D0F82031A0F8443157
:10AEF00000F5A17C4FF44173A4F8423160460BB0D9
:10AF0000BDE8F08F02A800F0ADF904F5A17C019036
:10AF100020B300F1FF3B5FFA8BF3284F04F1040BE1
:10AF20000DF1080A0BEB830BA64606AE97E80F005F
:10AF30001AF8018B86E80F0008F00F090AADA94442
:10AF400005EB181819F8109C18F8103CAEF846914B
:10AF5000AEF844310EF1040EDE45E7D1019B5B00F3
:10AF6000DBB201335B0043F44073C5E74FF0000CE4
:10AF7000C4E702F00F024FF0030E71E7A2F5006084
:10AF8000B0F5784F95D333E7787800F0C007802F7D
:10AF900002F01F027FF42CAF00F03F0040EA821263
:10AFA000A2F18000B0F5F06FBFF422AF02202DE7D0
:10AFB00040F242333FE740F202333CE7A45703003C
:10AFC0000048704730740020014B5869704700BF3B
:10AFD000307400200A4601460148FFF7EDBE00BF6D
:10AFE00030740020024B186800B10069704700BF40
:10AFF000B475002030B40848BDF80850046844B166
:10B00000646934B10846A44611461A462B4630BC42
:10B010006047002030BC7047B475002030B4084849
:10B02000BDF80850046844B1A46934B10846A44688
:10B0300011461A462B4630BC604730BC704700BFF3
:10B04000B4750020024B186808B190F850007047A2
:10B05000B87500202DE9F047244C2568002D42D01A
:10B060001F4600EBC00305EB83030446D3F818A08A
:10B0700089469046C600BAF1000F30D0504607F01E
:10B080003DFF0828024628BF0822344405EB84050A
:10B09000D5E90764DFF85CC0154B002E08BF664693
:10B0A00051464846002C08BF1C4607F079F8304648
:10B0B00007F024FF10280246314628BF10224046E0
:10B0C00007F06EF8204607F019FF042802462146D3
:10B0D000384628BF0422BDE8F04707F061B8DFF822
:10B0E00018A00822D1E7BDE8F08700BFB87500209E
:10B0F000F4570300E4570300D8570300F8B50B4F8B
:10B100003B688BB100EBC00503EB850504466A691B
:10B11000C6001AB190473B6885F82A00344403EB17
:10B12000840393F82A00F8BD1846F8BDB8750020CE
:10B13000074B1B685BB100EBC00003EB800010B451
:10B14000038D446A0C605DF8044B138070477047B0
:10B15000B87500200A781E2A01D10020704710B56A
:10B1600020221C460521002300F078FF204610BD58
:10B1700030B4094C029A256855B1044604EBC40466
:10B1800005EB840408461946A3680BB130BC184788
:10B190004FF0FF3030BC7047B875002030B4094C18
:10B1A000029A256855B1044604EBC40405EB8404F7
:10B1B00008461946E3680BB130BC18474FF0FF3022
:10B1C00030BC7047B8750020054B1B6833B100EBED
:10B1D000C00003EB8000036903B11847704700BF4C
:10B1E000B875002000B5104B402283B083F82723A8
:10B1F00003F030FF4FF080430024D3F838548DF82B
:10B200000040684606F0C8F9084B019301A806F013
:10B21000EFF906F0F9F9EB0702D401F009FFFCE7BA
:10B22000204603F053FDF8E700E100E031B20200F0
:10B2300003F04CBD002003F029BA00BF00B5002385
:10B2400083B00322CDE9002303490448C82205F056
:10B2500001F803B05DF804FBF8570300E5B1020004
:10B2600006F04CBC4FF08052536E1BBA0360136E55
:10B270001BBA43600820704700487047005803001D
:10B2800070B51F4D2B68B3B199B91478C4F341144C
:10B29000012C0BD0022C07D15478012C0DD0022C9C
:10B2A00007D19388072B21D0084670BD51782229F9
:10B2B0000CD0012070BD184670BDDC69F4B1237854
:10B2C00011462246BDE8704002F070BE5188003938
:10B2D00018BF01211976114602F04EFE2A68136A42
:10B2E000002BE6D0107E9847204670BD054C1146D5
:10B2F00023892246BDE8704002F058BE204670BD4A
:10B30000BC7500205460002010B5044601F0ECFD2F
:10B3100008B9002010BD01F0EFFD0028F9D1044864
:10B320004FF45A7303FB0400007900F0010010BDD4
:10B33000C0750020064B4FF45A7202FB003050F8E3
:10B34000063F0B60838882798A718B80704700BFCB
:10B35000C075002008B5044B4FF45A7202FB003050
:10B36000103001F025FC08BDC07500202DE9F0412A
:10B370004FF45A7505FB00F5194F05F110043C44D4
:10B3800092B2204601F040FC0646204601F02AFC1D
:10B390003F2802D83046BDE8F08107EB05080020C1
:10B3A00098F8031002F01EFD0028F3D0204601F0AB
:10B3B00019FC3F280BD905F53A7298F803103A4466
:10B3C0004023002002F072FD3046BDE8F08198F87D
:10B3D0000310002002F03EFD3046BDE8F08100BFC2
:10B3E000C0750020034B4FF45A7202FB003010303E
:10B3F00001F07CBCC07500202DE9F041044601F04D
:10B4000073FD10B90020BDE8F08101F075FD06461E
:10B410000028F7D14FF45A71DFF8608001FB04F483
:10B4200004F12C054544284601F0C2FB0028E9D070
:10B4300008EB04073046B97802F0D4FC0028E1D0CC
:10B4400004F54A74444428462146402201F0DCFBBE
:10B45000054660B1B978224630462B4602F026FDFB
:10B4600040B9054B1B68DB07CCD500BECBE7B978EC
:10B4700002F0F0FC2846C6E7F0ED00E0C0750020C1
:10B4800038B50C4B4FF45A7404FB00342C3492B290
:10B490000546204601F06AFC034620461C4601F0A2
:10B4A00087FB3F2801D8204638BD2846FFF7A4FF78
:10B4B000204638BDC075002008B5044B4FF45A72C1
:10B4C00002FB00302C3001F08DFB08BDC075002060
:10B4D000F0B51C4C83B000214FF45A722046012570
:10B4E0000E4606F085FEFF234FF4424204F1480168
:10B4F0006371E2802B460827009604F110004FF498
:10B50000807227732581668101F016FB2B464FF46C
:10B51000807204F5A471009504F12C0001F00CFB7D
:10B5200004F51271284604F08FF904F526710346DC
:10B530002846C4E9096304F087F9C4E9100603B09A
:10B54000F0BD00BFC075002010B5094B002203F10B
:10B550002C0403F110001A601A7101F07DFC2046E2
:10B5600001F07AFC20460121BDE8104001F09CBCAE
:10B57000C07500202DE9F0414B79022B82B002D139
:10B580008B79022B04D00025284602B0BDE8F0815B
:10B59000314FBB782BB1314B1B68DB07F3D500BEB5
:10B5A000F1E78B783B700C780C44064661782429CF
:10B5B0004FF009050BD1082A02D80FE0AA420DD39B
:10B5C00023781C442B44617824299DB2F6D00529A8
:10B5D0001BD0042902D163790A2B28D0204801F01E
:10B5E00001FB3F28D0D9F978002002F0FBFB0028AE
:10B5F000CAD01B4801F0F6FA3F28F97813D9194A46
:10B600004023002002F052FCBEE72146304602F003
:10B61000C9FB0028BFD0A3787B7023781C442B443F
:10B6200061789DB2D5E7002002F014FCACE70E4A29
:10B6300094F800800192022301320092304604EB1C
:10B6400008011A4602F03AFB0028A4D005F10E03C7
:10B6500018FA83F39DB2C1E7C0750020F0ED00E059
:10B66000D0750020A8780020C275002038B5137866
:10B6700003F06003202B0CD1264C938825789D4243
:10B6800007D15378203B032B03D8DFE803F00915DB
:10B690001E04002038BD71B3022931D0012038BD0D
:10B6A00061B10229FAD11C4B002BF7D01B490020B5
:10B6B000AFF30080012038BD0029EFD111460723E8
:10B6C000164A02F073FC012038BDA1B10229E5D170
:10B6D0005588257105F00104114884F0010101F03D
:10B6E000E3FB104B002BD9D0C5F3400221460020CC
:10B6F000FFF77CFAD2E7114602F03EFC012038BD8C
:10B70000094B002BCAD051880020AFF300800120E4
:10B7100038BD00BFC075002000000000C6750020C5
:10B72000EC750020EDAB0200000000002DE9F047B1
:10B73000574DEA788A420C4607461E465CD19AB2BB
:10B7400005F53A7105F1100001F010FB514BD3B132
:10B750006B79FF2B17D0B6B105F2E72808EB060A84
:10B76000A8F2D72902E0D0450DD06B7918F8012F47
:10B770009A42F8D1484601F02BFA0028F3D16979B2
:10B78000AFF30080EFE7444B23B1444801F020FAC7
:10B79000002870D0414801F025FA3F2805D9E97802
:10B7A000002002F01FFB002858D1AB789C4203D048
:10B7B00001242046BDE8F087394B13B10020AFF3D8
:10B7C000008001F091FB20BB364801F0F1F9002820
:10B7D000EED1002EECD016F03F06E9D1A97838461C
:10B7E00002F000FB04460028E2D0A9783846334630
:10B7F000324602F05BFBDCE7AB788B42DCD02A4BB5
:10B800001C6814F00104D4D000BE00242046BDE81A
:10B81000F08701F071FB04460028D5D1214801F0E2
:10B82000C7F90028D0D0A978204602F0DBFA00281A
:10B83000CAD01E494022A1F53F7001F0E5F9034648
:10B8400008B31A4AA978204602F030FB0028AFD18D
:10B85000154B1B68DB07B7D500BEB5E70F4801F0F5
:10B86000C1F93F280AD94023114AE978002002F0A3
:10B870001DFBAB789AE7AFF300808BE7E9780020F7
:10B8800002F0E8FA91E7A97802F0E4FA9CE700BF39
:10B89000C07500200000000000000000D0750020EE
:10B8A00000000000EC750020F0ED00E0E8780020DA
:10B8B000A878002002488C22002106F099BC00BF25
:10B8C0002879002002488C22002106F091BC00BF9C
:10B8D000287900202DE9F0414B79032B82B011D15A
:10B8E0000F79C7EBC7051235ADB295420C4604D8A7
:10B8F000DFF89C8098F8011049B1234B1B68DA07E8
:10B9000000D500BE0025284602B0BDE8F08194F8BD
:10B9100000C004EB0C0292F801E0BEF1210FECD163
:10B92000C8F8882014F80C1008F1010E08F1020C78
:10B930001144CDE900CE3A46064602F0BFF9002890
:10B94000DBD0A37998F80210012B04BFE37988F8C3
:10B9500003300122D8F8883088F80420A278B3F8A0
:10B96000073088F80020A8F806300029CBD0074A15
:10B970003046402302F09AFA0028C4D1024B1B68DB
:10B98000DB07C0D500BEBEE7F0ED00E07079002017
:10B9900028790020F0B51446127802F01F05012D19
:10B9A00083B00FD10B467149A78891F800C0FFB250
:10B9B000BC4507D112F06002064606D183BB62780F
:10B9C000062A30D0002003B0F0BD202AFAD16278D8
:10B9D000013A0A2AF6D801A050F822F0B1BA0200C2
:10B9E0009DBA020089BA0200C5B90200C5B90200B9
:10B9F000C5B90200C5B90200C5B9020071BA02009A
:10BA00004BBA020009BA020063B3022B08D1638863
:10BA1000574ADBB20B711AB119460020AFF3008010
:10BA2000012003B0F0BD6288120A212A65D0222AC3
:10BA3000C8D11846FFF7D6FA4C490246CB883046A3
:10BA4000214602F0B3FA2846BDE7002BE8D1628810
:10BA50004848120A4A7128B111461846AFF30080CF
:10BA60000028AFD02146304602F086FA0120AAE72E
:10BA7000002B4ED1E388402BA4D83F4A21463046C4
:10BA800002F094FA01209EE7002BC9D13B4A2146DF
:10BA90003046012302F08AFA012094E7002BBFD13F
:10BAA000374A21463046012302F080FA01208AE716
:10BAB000002BB5D1E5886088402D4FEA10222F4633
:10BAC00028BF402710F0FF003ED0012D46D9013F8E
:10BAD00008722C49BFB201250B4600970146002091
:10BAE000FFF788FA2B189BB28BBB274A1268D20744
:10BAF0007FF568AF00BE184665E7D1F88820002AB8
:10BB00003FF460AF1378214603B0BDE8F04002F087
:10BB10004DBA022B84D1E5886388402D2C4628BF7E
:10BB2000402413F0FF004FEA132205D0012D03D962
:10BB300091F84830834214D00F4B00940146002006
:10BB4000FFF76CFA01203EE710491D46C4E70F4A93
:10BB50002146304602F02AFA012034E70B491D46FF
:10BB6000BAE7013C0A4BA4B2E7E700BF28790020FE
:10BB70000000000000000000707900202C790020F7
:10BB80002D79002031790020F0ED00E0307900209F
:10BB90007179002030B51C4CA2788A4283B00CD158
:10BBA0006178914217D1194A22B11949DAB20020BD
:10BBB000AFF30080012003B030BD62788A42F2D03A
:10BBC000144B1B68DB0703D500BE002003B030BD5B
:10BBD000002003B030BD00229BB211460546009301
:10BBE000104604F14803FFF719FAA17828464023CC
:10BBF00004F1480202F05AF90028DBD1054B1B681A
:10BC0000DA07E5D500BED6E728790020000000005D
:10BC100030790020F0ED00E070B500F12C0504460D
:10BC2000284600F0C5FF08B9002070BD61780020EB
:10BC300002F0D8F80028F7D004F50A7628463146F5
:10BC4000402200F0E1FF054660B1034661783246CC
:10BC5000002002F02BF940B9054B1B68DB07E3D548
:10BC600000BE70BD617802F0F5F8284670BD00BFD7
:10BC7000F0ED00E030B5164C83B000210D464FF4D6
:10BC80001A72204606F0B4FA04F1480104F11000DB
:10BC900000950123802200F04FFF802204F1C801AB
:10BCA0000123009504F12C0000F046FF04F5A47177
:10BCB000012003F0C9FD04F5CC7103460120C4E95D
:10BCC000095303F0C1FDC4E9100503B030BD00BF46
:10BCD000508A002010B5084C002304F11000C4E97C
:10BCE0000033C4E9023301F0B7F804F12C00BDE8D9
:10BCF000104001F0B1B800BF508A00202DE9F04398
:10BD00004B79012B83B002D18B79012B04D0002514
:10BD1000284603B0BDE8F083CB79002BF7D10B7830
:10BD2000CC1806466578242D99B20BD1914202D9E0
:10BD3000EDE78A42EBD323781C440B446578242D2D
:10BD400099B2F6D0042DE2D16379012BDFD1A3792A
:10BD5000032BDCD1E579002DD9D1DFF8CC8098F820
:10BD6000010098F8023050EA030905D02B4B1B68FC
:10BD7000DB07CCD500BECBE7A37888F80030277866
:10BD80002079CB199DB2274430B922E03B78814518
:10BD90001D44ADB21F441CD2AA421AD37B78052B96
:10BDA000F4D139463046019201F0FCFF019A68B3A4
:10BDB000BB782079D90914BF88F8013088F802309F
:10BDC000397809F101030D445FFA83F9ADB20F44EC
:10BDD000DCE7134800F006FF3F2899D998F80210D5
:10BDE000002001F0FFFF002892D00D4800F0FAFE7D
:10BDF0003F2898F8021005D90A4A4023002002F093
:10BE000055F885E7002002F025F881E7034B1B6811
:10BE1000DA077FF57CAF00BE054679E7F0ED00E07C
:10BE2000608A0020388C0020508A00200020704753
:10BE3000F8B52D4DAA788A421E4619D19AB205F559
:10BE4000F47105F1100000F091FF284B13B10020B0
:10BE5000AFF30080264800F0C5FE3F2805D9A97839
:10BE6000002001F0BFFF044668BB01242046F8BD56
:10BE70006B788B4208D01F4B1C6814F00104F5D07E
:10BE800000BE00242046F8BD07462846FFF7C4FE42
:10BE90000028EAD105F12C0000F08AFE0028E4D148
:10BEA000002EE2D016F03F06DFD16978384601F067
:10BEB00099FF04460028D8D0697838463346324680
:10BEC00001F0F4FFD2E70A4800F08CFE3F28A97881
:10BED00005D9094A4023002001F0E8FFC6E7002009
:10BEE00001F0B8FFC2E700BF508A00200000000048
:10BEF000608A0020F0ED00E0388C002070B52E4CF8
:10BF0000E28AA36852BA92B282B0054612B1B3FB7C
:10BF1000F2F292B2A06BD4F81110B0FBF2F61B1A39
:10BF2000B3F5007F28BF4FF4007309BA009302FBFA
:10BF30001602224B607B3144FFF71AF9031E13DB14
:10BF400009D094F82E101D4A9BB2284601F0AEFF8E
:10BF500058B302B070BD94F82E10009328461A46CC
:10BF600001F078FE02B070BDA268A36B43F203300B
:10BF70000021D31AA08784F83E1001200221A36279
:10BF800084F82C0084F83010002AE2D0002BE0D096
:10BF9000237BDB0914BF94F82E1094F82F10284649
:10BFA00002B0BDE8704001F0BDBF054B1B68DB0768
:10BFB000CFD500BECDE700BFB47B0020B479002010
:10BFC000F0ED00E038B5214B214C05461BB1607BFC
:10BFD000AFF30080B0B1A06BA36894F82F101D4A96
:10BFE0001B1AB3F5007F28BF4FF4007328469BB29D
:10BFF00001F05CFF00B138BD174B1B68DB07FAD5B9
:10C0000000BE38BDA26BA16884F83E008B1A42F2D4
:10C0100007720120A2870222A36284F82C0084F810
:10C0200030200029E7D0002BE5D0237BDB0906D0A8
:10C0300094F82E102846BDE8384001F073BF94F8FC
:10C040002F102846BDE8384001F06CBF000000000A
:10C05000B47B0020B4790020F0ED00E0044880F8C3
:10C060003C1080F83D2080F83E300120704700BF32
:10C07000B47B002002484022002106F0B9B800BF7E
:10C08000B47B002002484022002106F0B1B800BF76
:10C09000B47B00204B79082B01D0002070478B79AE
:10C0A000062BFAD1CB79502BF7D1162A06D81C4B88
:10C0B0001B68D907F1D500BE0020704770B5194D37
:10C0C0008B7885F82D300B7882B005F12F0205F1C1
:10C0D0002E0619440223CDE900261A46044601F033
:10C0E000EDFD30B90E4A1268D2070FD500BE02B07E
:10C0F00070BD204695F82F1000241F232A4685F88E
:10C10000304001F0D3FE20B11720F0E7002002B04C
:10C1100070BD034B1B68DB07F6D500BE1720E6E7B2
:10C12000F0ED00E0B47B0020002961D170B51378F8
:10C1300003F07F05022D84B0044620D003F0600395
:10C14000202B02D0002004B070BD5378FE2B34D0D9
:10C15000FF2BF7D15388002BF4D1D688B3B2002B34
:10C16000F0D13B4D11462046AE87C5E90D3385F829
:10C17000303085F83E3001F0FFFE0120E3E75578CE
:10C18000012DDBD15388002BDCD1314E938896F8FA
:10C190003020042ADBB243D096F82E10994229D0E1
:10C1A00096F82F509D4205D122B9294601F0ACFEE8
:10C1B00000283AD0012004B070BD5388002BC1D1B3
:10C1C000D0880128BED1234B8DF80F002BB10192EE
:10C1D000FEF738FF019A0028B4D0451E11462046CC
:10C1E00001230DF10F028DF80F5001F0DFFEE1E7A2
:10C1F00001207047022ADDD1B26BB3689B1A032479
:10C20000B36206F120020D2386F8304001F04EFEA5
:10C210000028CFD1104B1B68DB0793D500BE92E7F7
:10C22000194601F07FFE28468DE72946204601F099
:10C2300095FE0028BED1002386F8303096F82F10E6
:10C24000034A20461F2301F031FE0028B2D1E1E766
:10C25000B47B002045B00200F0ED00E0F0B5A74C43
:10C2600094F83050012D8FB01E4607466FD0032D35
:10C2700046D02DB1022D00F0898001200FB0F0BD15
:10C2800094F82F308B42F8D11F2E40F09E809C4BAB
:10C2900022689A4240F09980E37B9A4A6068A562DE
:10C2A00084F82C50A5632262A56860620122282BC5
:10C2B00084F83020656300F0DA802A2B00F09F823A
:10C2C000002D00F02981227BD20940F02581B5F5AF
:10C2D000007F40F2F78294F83C30A56201200222F0
:10C2E00084F82C0084F8302023B942F2050284F847
:10C2F0003E30A287384601F015FE94F83050B9E779
:10C3000094F82E308B42B8D10D2EB6D1E37B282B7A
:10C3100000F06D822A2B00F062827B4B23B1607BA0
:10C3200004F10F01AFF30080002084F83000734A5D
:10C3300094F82F101F23384601F0B8FD0028DCD1F7
:10C34000724B1B68DA0700F19080002096E7E37BD0
:10C35000282B12D02A2B59D0A36B227B3344D2092D
:10C36000A36347D0626B9A420DD9684B1B68DB0709
:10C37000C3D500BE94F830507CE7D4E90D23334494
:10C380009342A3636CD3022384F8303094F82E10C8
:10C39000384601F0E3FD00287FF46FAFA368A26B7D
:10C3A000934202D9217BC9091ED19B1A0325A3629E
:10C3B00094F82E10564A84F8305038460D2301F078
:10C3C00075FD00287FF459AFBAE7042394F82E10C6
:10C3D00084F83030384601F0A5FD384694F82F1027
:10C3E00001F0A0FD002049E794F82E10384601F036
:10C3F00099FD42E7A38E474A607B04F10F01FEF7E7
:10C40000A9FE0028C0F2C981A36BABE7E08A40BA5D
:10C4100080B218B1A368B3FBF0F080B2D4F8111069
:10C42000A26B3C4DB2FBF0F309BA00FB1322194496
:10C43000607B00962B46FEF7B1FE0028C0F20A8210
:10C44000864252D9002840F03382002394F82F10FE
:10C4500000933246384601F0FDFB94F8305009E76E
:10C46000FFF74CFD94F8305004E700BE06E7E28A7F
:10C4700052BA92B29DB9002A85D094F83C3002227B
:10C48000002184F82C2084F83020A162002B7FF456
:10C490007DAF42F2050284F83E30A28776E7207B2A
:10C4A000C0090BD0002A00F0EE819542C0F0228234
:10C4B000282B3846D4D0FFF785FD1EE794F83C20A2
:10C4C000A562022384F82C3084F83030002A7FF4EF
:10C4D00011AF42F205020023A28784F83E30207B90
:10C4E000C00900283FF406AF9DE1D4E90D23334491
:10C4F0009342A363BFF447AF3846DCE7B47B002028
:10C50000555342435553425300000000F0ED00E004
:10C51000D47B0020B4790020607B252B27D8DFE86E
:10C5200013F03701260026000A0126002600260007
:10C5300026002600260026002600260026002600CB
:10C54000260026002600E9002600260026002600F8
:10C55000260026002600CF00B50026002600260073
:10C5600026002600260026007B002600520094F8B4
:10C570003C30002B3AD1B04AB049ABB2FEF7EAFDED
:10C58000002833DB40F0C981A368002B3FF4FBAEE9
:10C59000A16B94F83C205B1A01200221A36284F86D
:10C5A0002C0084F8301022B942F2050184F83E20B4
:10C5B000A187002B3FF4EAAE237BDB0940F03381F7
:10C5C00094F82F1096E604AA05A9FEF7B1FD059B85
:10C5D00023B1BDF81020002A40F0968194F83C3039
:10C5E00023B940F2024284F83E30A287A268A36BCE
:10C5F00094F83C100120D31A84F82C000220A36286
:10C6000084F8300021B942F2050084F83E10A0877A
:10C61000002A3FF4BBAECCE705AD00230DF10E02BE
:10C6200004A96B600593AB60FEF782FD049A002AB3
:10C63000D4D0BDF80E30002BD0D012BA5BBA08208F
:10C640000221ADF81E3006928DF817008DF81C10EF
:10C6500095E80700784BA56883E807000C20002DBB
:10C6600040F03981A36B94F83C205B420121A36226
:10C67000022384F82C1084F83030002A7FF486AE30
:10C6800042F2050384F83E50A3877FE66C4B002BF3
:10C690003FF47AAFE17CC1F3400301F001020909E4
:10C6A000AFF3008000287FF46FAF94F83C30002B8C
:10C6B0009CD140F202420023A28784F83E3095E7E5
:10C6C000059B604A03F4000343F003030593002A2B
:10C6D00000F01881AFF300809DF81630564AA56827
:10C6E00080F0010060F3C7138DF81630059B1360CE
:10C6F0000420B4E74FF020330022CDE90A33524D35
:10C70000069207A909AA0893079309930D930C931E
:10C7100005AE0DAB0595FEF79DFC0FCEDFF818C1F9
:10C72000A568ACE80F000FCEACE80F003368CCF87A
:10C730000030242093E794F83C2094F83D0094F8CE
:10C740003E10DFF8F4C04FF0000E4FF00003CDE9CB
:10C7500005EECDE907EE62F303038DF81630F02203
:10C760000A23ADF824E08DF820008DF821108DF813
:10C7700014208DF81B3005AE0FCEACE80F003368E7
:10C78000A4F83CE084F83EE0ACF80030122066E704
:10C79000FEF7B4FC002888D0F6E6A268A36B94F8F4
:10C7A0003C0084F82C50D11A0225A16284F8305044
:10C7B00020B942F2050584F83E00A587002A3FF41F
:10C7C000D1AD00293FF4CEAD237BDB0900F094808E
:10C7D00094F82E10384601F0A5FBA36BC2E51B4B65
:10C7E000002B3FF4A1AD607BFEF7EEFC9CE5184BFF
:10C7F000002B3FF499AD607BAFF3008094E5E28AB3
:10C8000052BA92B2002D3FF436AE207BC0093FF4FD
:10C8100049AE94F83C30A562022284F82C2084F8BA
:10C820003020002B7BD094F82E10384601F07AFB94
:10C8300094F830501EE500BFB4790020C37B00207F
:10C84000000000000000000000800202C9B10200E8
:10C8500000000000A36BA2683344D11A43F20330F6
:10C86000A3630023A08784F83E3001200223A16245
:10C8700084F82C0084F83030002A3FF487AD00297A
:10C880003FF484AD98E6012294F83C3084F82C20E3
:10C890000222A56284F83020002B7FF422AE42F2FF
:10C8A000050284F83E30A287002D3FF46FAD16E6F6
:10C8B000A36B361A0344291832462846A36305F0B1
:10C8C0007DFCC2E5194AABB2384601F0EFFA002808
:10C8D0007FF413AD34E5A84228BF284683B26063D5
:10C8E000124A94F82E10384601F0E0FA00287FF43E
:10C8F00004AD25E50222C7E794F82F10384601F071
:10C9000011FB81E50120E7E60849A568013B1BBA58
:10C9100012BAC1E900320820A1E6A5689FE642F2FA
:10C92000050284F83E30A287D9E500BFB479002023
:10C9300030B5154C83B000210D464FF4EE72204601
:10C9400005F056FC04F13C01201D00950123402216
:10C9500000F0F2F8402204F17C010123009504F17B
:10C96000200000F0E9F804F1BC01012002F06CFFA6
:10C9700004F5867103460120C4E9065302F064FF02
:10C98000C4E90D0503B030BDF47B002010B5064CA2
:10C990002046002340F8043B00F05EFA04F120003A
:10C9A000BDE8104000F058BAF47B00204B79FF2B13
:10C9B00001D0002070472DE9F041324C6678A37811
:10C9C000334382B003D0002002B0BDE8F0810D787F
:10C9D0008B782370804608790F460D4408B36B7836
:10C9E000052B0AD0AB189D4202D306E0AB4204D916
:10C9F00029780D4469780529F8D1234E0196731CD6
:10CA00000246009329460223404601F057F90346A7
:10CA1000A8B13B79A178C3EBC3031D4431B9617858
:10CA2000A1B9E81B80B202B0BDE8F081402306F254
:10CA30005B12404601F03AFA03460028EFD1134A50
:10CA40001268D207BFD500BE1846BDE7002001F02E
:10CA50005BFA06460028E4D10D494022A1F5BE70DC
:10CA600000F0D2F80028DCD003466178084A30464E
:10CA700001F01CFA0028D4D1044B1B68DB07D0D589
:10CA800000BECEE7F47B0020F57B0020F0ED00E057
:10CA9000907D002038B5234CA2788A420AD0637872
:10CAA0008B424FF0000004D101F02EFA054600B38E
:10CAB000012038BD9AB204F5AE71201D00F056F980
:10CAC000194B13B10020AFF30080A178002001F0D2
:10CAD0001BFA05460028EBD1144800F083F83F28E4
